:020000040800F2
:100000008807002085440008414400084344000854
:1000100000000000000000000000000000000000E0
:10002000000000000000000000000000474400083D
:100030000000000000000000494400084B44000894
:10004000232A00085F3800080B4400081744000802
:10005000E9440008EB440008ED440008EF440008C0
:10006000F1440008F3440008F5440008F744000890
:10007000F9440008FB440008FD440008FF44000860
:100080000145000800000000000000002D130008DA
:1000900000000000B91A0008CF1500080345000849
:1000A0000000000005450008074500080945000854
:1000B0000B450008000000000D4500084D440008F5
:1000C000F8B500F063F930BF00F055FE0078002865
:1000D00000D1B9E000F04FFE007880075BD5022028
:1000E00000F04BFEA748017801220A43027000F09D
:1000F0004EFE0400A078002818D1A34D0321E01C77
:1001000000F098FD2860E079A88000200100E279E5
:10011000C9B2914200D397E00100C9B26118097ACF
:100120000200D2B2AA189171401CEFE7A078012812
:1001300003D1200000F093FD86E0A078022811D1C1
:10014000802000F01FFE200000F089FD00F001FF7C
:100150008D48821D0168808800F063FE802000F0D9
:100160000CFE71E0A07803286ED1802000F00AFE1A
:100170000321E01C00F05EFD050000F0EAFE220015
:100180000832290089B2E07980B200F04AFE80206E
:1001900000F0F3FD58E000F0EEFD0078400706D5D2
:1001A000042000F0EAFDA348A34908604CE000F0F9
:1001B000E2FD0078000747D5082000F0DEFD802032
:1001C00000F0E0FD6A460021042000F05EFE0421FC
:1001D000684600F02FFD04000020C043844230D068
:1001E000002635003700002C10D09448844203D3F9
:1001F000934824186D1CF6E79248844202D33400D9
:100200006D1CF0E7340001200700ECE73000290006
:1002100080B289B288420AD200F09BFED821200029
:1002200000F05CFE802040022418761CEEE73800C7
:10023000C0B2012805D100F08CFE5221200000F050
:100240004DFE802000F099FD4E480078C00700D593
:1002500039E77D4E308800282FD07C4C206800285C
:100260002BD001F03BF90700002528003900C0B26F
:10027000C9B2884221D2308821682A00D2B208232C
:100280005A43895A084216D0308821682A00D2B2CF
:1002900008235A43895A884330802800C0B201F0AD
:1002A00013F921682A00D2B208235A4389184968F1
:1002B00080B200F0DDF86D1CD7E7654C208800287F
:1002C00029D0644D2868002825D001F081FB070063
:1002D000002630003900C0B2C9B288421BD2208843
:1002E00029683200D2B20C235A43895A084210D0EE
:1002F000208829683200D2B20C235A43895A884395
:10030000208028683100C9B20C225143401800F007
:10031000B9F8761CDDE7504E3088002800D1D2E6CF
:100320004E4C2068002800D1CDE601F054FB0700B8
:10033000002528003900C0B2C9B2884200D3C2E605
:10034000308821682A00D2B208235A43895A0842C9
:1003500016D0308821682A00D2B208235A43895A1D
:10036000884330802800C0B201F04DFB21682A008C
:10037000D2B208235A4389184968C0B200F094F8F1
:100380006D1CD6E7800300209400002080B511206A
:100390003349086033480168A02292030A4302608F
:1003A00031490A6880235B0413430B600A68920199
:1003B000FCD50168032291430160016802220A43CF
:1003C000026001680C220A40082AFAD12748016815
:1003D0008C22D2030A4302600022CA49CA4801F0B3
:1003E0003FFB01F05EFB00F0EDFC00F095F91748D3
:1003F0000068002801D000F05EFF16480068002861
:1004000003D116480068002801D001F0DBFA00F0A3
:1004100049FC01BD0C490A8802430A8070470C4917
:100420000A8802430A8070470B490A8802430A80FF
:10043000704700000400FA050CED00E00100010027
:100440000000FFFF0180000074030020480300202B
:10045000760300204C030020780300205003002086
:10046000002002400410024000100240141002401C
:1004700038B505000C002200290089B2032000F0E5
:100480001EF831BD10B504006268217A89B20120DE
:1004900000F015F8207A401C2072207A617A884298
:1004A00001D10020207210BD38B505000C002200DB
:1004B0002900C9B289B2022000F001F831BDF7B5B8
:1004C0008CB00E9D914CA21D2900052000F0DDFC92
:1004D000A07A694648706D1D00206946087068461C
:1004E000007869464978884200D309E1A21D2900B5
:1004F0001C2000F0CAFC0321A01D00F09BFB06900D
:100500002200093207A902A801F00AFB02A800791B
:100510000799884702A809998847012800D0DFE099
:1005200000221D21272001F09BFA02212000193012
:1005300000F080FB694688800027380069464880C3
:100540000CA80078012813D030D3032801D025D37C
:100550002CE0684686886E48E17E01F097FB01003A
:100560006846808E01F092FB4643684646801DE057
:100570006846808EE17E89B2884207D268468088CC
:100580006946898E48436946488006E06846808E01
:10059000E17E01F07BFB6846418007E06846808889
:1005A0006946898E484369464880FFE7022120005A
:1005B0001C3000F03FFB06000CA8007801280BD18E
:1005C000A07B012808D16846808E012804D100F064
:1005D0008FFF5049088086E0207E00284AD102A87B
:1005E0004079310080B289B2884203D202A84079B2
:1005F000A08000E0A680042120001E3000F01AFB3D
:100600002060300080B205214143684640880818C8
:1006100018302D18300080B2002864D0A088042142
:1006200048436946C880A21D29006846C08800F07A
:100630002CFC02AF3878012804D1220007A902A8B7
:1006400001F08EFAA088361A300080B20028E1D07E
:100650002068A188401820606846C0882D187879E5
:10066000310080B289B2884202D27879A080D1E785
:10067000A680CFE7280018300590300080B2052111
:10068000414368186946498840181830049038007A
:10069000310080B289B2884225D2A21D0599052079
:1006A00000F0F3FB0421A01D00F0C4FA2060A07A42
:1006B000A080A07A6946C880A21D04996846C088B7
:1006C00000F0E3FB210002A80A9A90470598401D1C
:1006D000059004986946C988401804907F1CD6E7A5
:1006E000022000F0DDFA02A80079089988470698F0
:1006F000C01C2D1868460078401C69460870EEE65C
:100700000FB0F0BD0F270000DF2E00009400002086
:10071000FF0F0000740300203EB56A46002104204C
:1007200000F0B3FB0421684600F084FA05000020C5
:10073000C043854227D000F027F86A4606210220F0
:1007400000F0A3FB0221684600F074FA08300500AF
:100750000C24200080B2A84215D201AA210089B23F
:10076000072000F092FB68460079002805D0012898
:1007700007D101A800F0ACF903E001A800F0E7F808
:10078000FFE7E41DE5E737BDF0B585B004AA082111
:10079000042000F07AFB022104A800F04BFA69461D
:1007A0008881022104A8801C00F044FA6946C880B0
:1007B0006846C08801F0C4FA02900298002802D16D
:1007C000002000F06DFA029A684681896846C08868
:1007D00000F05BFB02980078012802D0012000F0B5
:1007E0005FFA00242000694688802000694648801E
:1007F0002000694608806B4600AA921C01A9029855
:10080000401C01F03FFB0298C07B002803D10298F6
:10081000407C002801D001F0C3FC029801F01AFED0
:1008200068468088002828D0A4496846808800F05F
:100830003DFC00F053FE0700A14D3800C0B2082176
:10084000484301F07DFA28602868002802D1002082
:1008500000F026FA260030003900C0B2C9B2884242
:100860000BD23000C0B200F03CFE29683200D2B298
:1008700008235A438852761CEDE7684640880028D2
:1008800003D16846008800285FD08E4B68460288F6
:100890008D496846408800F06DFF27006846408813
:1008A00000282BD001F094F80700884D3800C0B222
:1008B0000C21484301F044FA28602868002802D13E
:1008C000002000F0EDF9260030003900C0B2C9B2B6
:1008D000884213D23000C0B201F084F82968320097
:1008E000D2B20C235A43885228683100C9B20C2274
:1008F0005143401821000172761CE5E768460088E4
:10090000002822D001F067F80500C94E2800C0B2C7
:100910000821484301F014FA30603068002802D101
:10092000002000F0BDF920002900C0B2C9B2884201
:100930000BD22000C0B201F05CF831682200D2B2C4
:1009400008235A438852641CEDE705B0F0BDF1B5A9
:100950008EB004210E98401C00F06CF90400CD4FBD
:10096000BA1D2100062000F090FAF87A6946487016
:10097000BA1D08A902A801F0D3F802A800790899C5
:10098000884702A80A998847012800D08DE00022F4
:100990001D21272001F064F8A41D0020694608707D
:1009A0006846007869464978884200D380E006AA04
:1009B0002100082000F069FA06AD0421681C00F04F
:1009C00039F938600221A81D00F034F969464880E1
:1009D00068464088B8806879002826D1083428788D
:1009E000002805D1BA1D2100B88800F04EFA0CE0AD
:1009F0002878022809D1B888049000200190BE1DF3
:100A0000019A0499300001F029FD2878002802D0CD
:100A10002878022805D1390002A80B9A904701F0E6
:100A200040F868464088241839E0B888697901F0B0
:100A30002DF9694688806879B8802878022809D11C
:100A4000B888059000200490BE1D049A05993000D6
:100A500001F004FD0834002630006946898880B220
:100A600088421CD22878002804D1BA1D2100B888F9
:100A700000F00BFA2878002802D02878022805D147
:100A8000390002A80B9A904701F00BF86879B880FA
:100A9000687924183868401C3860761CDCE76846A2
:100AA0000078401C694608707AE7022000F0F8F8E8
:100AB00002A80079099988470FB0F0BD1504000815
:100AC00048030020290400081F0400084C030020EC
:100AD000F1B582B06F4C04210298401C00F0AAF8D6
:100AE0002060A21D2168022000F0CFF900F0F6FC82
:100AF00007000026300001003A00C9B2D2B291428C
:100B000018D265490125E27995400A6894460300A8
:100B1000DBB2082253436246D25A954208D1096893
:100B20000200D2B208235A43891822684A607DE045
:100B3000401CE0E700F04CFF694648703500280093
:100B400069464978C0B2884251D2544F0120E179B8
:100B5000884039682A00D2B20C235A43895A884205
:100B600043D138682900C9B20C225143401821688A
:100B7000416020680190A21D0199052000F085F9CF
:100B8000A07A694608700198401D019038682900D4
:100B9000C9B20C22514340184672300069460978A8
:100BA000C0B2884220D2A21D0199162000F06DF932
:100BB0000321A01D00F03EF839682A00D2B20C23B0
:100BC0005A438918497AE27E914207D239682A004D
:100BD000D2B20C235A438918E27E4A720199C01C92
:100BE00008180190761CD8E720E06D1CA7E700F0FC
:100BF000F2FE31000200C9B2D2B2914216D20C49C3
:100C00000122E3799A400B683500EDB208277D4355
:100C10005B5B9A4208D109683200D2B208235A437A
:100C2000891822684A6001E0761CE2E7F7BD0000FF
:100C30005003002030B50200002318001C000D00F6
:100C4000E4B2EDB2AC4209D21C00E4B2145D082556
:100C50005D43AC40044320005B1CEFE730BD30B582
:100C60000C498A8800231C00C579E4B2AC420CD23E
:100C70001400A4B21D00EDB264190C191D00EDB2F0
:100C800045192D7AA5715B1CEDE78B88C4791B197A
:100C90008B8030BD94000020480300204C030020CE
:100CA00000B5FEE780B53E48016801220A430260B4
:100CB0003C48016810220A4302603B4B3B4A3C49D6
:100CC0003C4801F031FC01BD38B5040000200100B2
:100CD0000A00D2B2402A08DA0A00D2B2A25C364B2D
:100CE0000D00EDB25A55491CF2E7334D69780029E1
:100CF00006D0022913D00CD304291CD015D32BE025
:100D00002E480078E87000F044F8280000F025F83C
:100D100022E02A48017802220A4302701CE0274898
:100D2000017804220A43027016E024480178082260
:100D30000A43027010E001210A00EA70287168710C
:100D4000A871E87120222A726872A97200F021F855
:100D5000280000F002F8FFE731BD38B50500184C57
:100D60002078002806D040222900124801F0EBFD2F
:100D70000020207031BD1148704710490A78824325
:100D80000A7070470D490A7802430A7070470A4892
:100D9000704700B50A4800780128FBD100BD00006B
:100DA00018100240000001407C00002020000020BC
:100DB000440000209C010020E40200208403002065
:100DC0009000002080B59020C0050168802252026A
:100DD0000A43026084480188802252000A4302804C
:100DE00082480168A82212010A4302608048016813
:100DF000A822D2000A4302607E4801688022520184
:100E00000A4302607C48C32189000180B82149015E
:100E10007A4A1180018840220A43028000F0A8F833
:100E200002BDF2B505001400754F6F4E3088384092
:100E30003080062000F0CAF8308880214900014344
:100E40003180308807403780022000F0BFF80098DA
:100E5000000CC0B200F0BAF80098000AC0B200F06E
:100E6000B5F80098C0B200F0B1F8280080B20028B0
:100E700005D0207800F0AAF8641C6D1EF5E73088D4
:100E80008021490001433180F1BDF8B504000F0015
:100E90001500554E30885A4901403180032000F03A
:100EA00095F83800000CC0B200F090F8380AC0B2D3
:100EB00000F08CF83800C0B200F088F8002000F094
:100EC00085F828706D1C641E200080B20028F5D1C2
:100ED00030888021490001433180F1BDF2B507001F
:100EE000474C414D288820402880062000F06EF8AD
:100EF00080267600288830432880288804402C806B
:100F00006846007800F062F83800000CC0B200F0CB
:100F10005DF8380AC0B200F059F83800C0B200F0ED
:100F200055F8288806432E80F1BD38B504002E4DB3
:100F30002888334901402980052000F047F8002027
:100F400000F044F82070288880214900014329805E
:100F500031BD1CB501242000694608706846007840
:100F60002040002803D06846FFF7DFFFF6E713BDF7
:100F70007CB500A8401CFFF7D8FF214C1A4D2888EB
:100F800020402880062000F021F88026760028885E
:100F9000304328806846FFF7C8FF684600786946F6
:100FA000497888420CD0012069460870288804409E
:100FB0002C80042000F00AF8288806432E8002E0E6
:100FC0000020694608706846007876BD00B50100CB
:100FD0000C4802889207FBD50B4A11700388DB0787
:100FE000FCD5107800BD0000140000480004004843
:100FF000080400481810024000300140043001404D
:10100000FFFE0000083001400C3001400121C20603
:10101000D20E9140AD4A11607047F0B5020052B255
:10102000002A23D503220F241F4B05006DB2254053
:10103000083DAD0804267543060076B23440083CEE
:10104000A408042674431E59FF27BC46140004401C
:1010500008277C436746A740BE438C01E4B20240A8
:1010600008277A43944034435C511BE0984A032399
:10107000040064B2A40804256C431459FF251E0023
:10108000064008277E43B540AC438D01EDB20340D6
:10109000082673439D40254303005BB29B0804244C
:1010A0006343D550F0BD00001CED00E0F3B581B006
:1010B00006000298874908608748068087480168CB
:1010C000802292000A430260854F8020000638602B
:1010D00039680029FCD483490860072082490860E8
:1010E0000024009420000100C9B2082916DA7F49C3
:1010F0000200D2B202235A43895A0E420CD07C49D4
:101100000A78521C0A7000997A4A0300DBB204255F
:101110006B43D2580A430092401CE4E774480078BD
:101120000221484300F00CFE7349086072480068D1
:10113000002802D10020FFF7B3FD704D6C48007805
:101140000221484300F0FCFD28602868002802D1F5
:101150000020FFF7A5FD664800781021484300F005
:10116000EFFD6749086066480068002802D100204A
:10117000FFF796FD0098634908606348634908607B
:1011800001253868284338606148006828400028F5
:10119000FAD060480168294301605F485F490860F0
:1011A000554800685E490860514800785D4908600C
:1011B0005D480168B422D2000A43026001682943F5
:1011C0000160200001004A4A1278C9B2914232D22D
:1011D0002100494A12680300DBB202277B43D15247
:1011E00047490A680300DBB210277B43D218BA4B89
:1011F00053800A680300DBB210277B43D218230018
:10120000D38122001300DBB2042B12DA0B689C4658
:101210000700FFB210235F436346DB199C461700AB
:10122000FFB202235F436346DB1927009F80521CF5
:10123000E8E7401CC6E7210008002D4A1278C0B23A
:1012400090421DD222002800904033009BB20342FE
:1012500001D1521CF7E728009040294B1B689C469F
:101260000F00FFB210235F436346D8532448006841
:101270000B00DBB210277B43C05A8643491CDBE7D7
:101280009D480168802252000A4302609B489C49A5
:1012900008809C489C49086028009C4908801320CD
:1012A000FFF7B4FE01211320FFF7B7FE9848048032
:1012B00098480580F7BD0A48016804220A43026085
:1012C0009548018801220A430280704700E100E04E
:1012D00000E400E02C0300207003002018100240FE
:1012E0000824014010240140142401405444000803
:1012F0007C030020C0430008340300203803002092
:101300003003002028240140032000000C24014069
:10131000002401401410024040240140100002400B
:10132000140002400C00024008000240F8B50024FE
:101330002000774908802000784F01003A78C9B230
:1013400091420FD2764909680200D2B202235A4371
:10135000895A744A12680300DBB202256B43D152EA
:10136000401CE9E720000100C9B2022931DA01225C
:101370006D490B8801000A3115008D402B4226D0A3
:101380006849554B0D682D885B1B6D462B801300FB
:101390003D78DBB2AB4211D20B681500EDB20226EC
:1013A00075435E19B61E0B689C461500EDB202230C
:1013B0005D4363465B5B3380521CE8E709683A781B
:1013C00002235A438918891E6A4612880A80401CE3
:1013D000C9E7260020003978C0B288426AD2534D4E
:1013E00028682100C9B2102251434018011D4D4800
:1013F00000682200D2B202235A43805A01F0E9FA6F
:1014000028682100C9B2102251434018C0892968B8
:101410002200D2B210235A4389184988884210D238
:1014200028682100C9B21022514340184088296819
:101430002200D2B210235A438918C989401A32288F
:1014400020DA28682100C9B2102251434018408890
:1014500029682200D2B210235A438918C9898842C8
:1014600026D228682100C9B2102251434018C089F1
:1014700029682200D2B210235A4389184988401A99
:10148000322815DB28682100C9B2102251434018C8
:1014900029682200D2B210235A438918C989418091
:1014A00028682100C9B210225143405A3043060037
:1014B000641C8FE7300080B2002804D0300080B276
:1014C0001B4909688847F1BD18490968C0B2102254
:1014D0005043081840887047FF0F00000F480078FD
:1014E000704712490968C0B210225043085A704729
:1014F0000D480088704700001C1002401F030000C8
:1015000028200040570200002C20004014200040FA
:10151000102000400C200040002000407C030020F0
:101520003403002038030020700300203003002023
:101530002C0300200121C206D20E9140874A11607F
:101540007047F0B5020052B2002A23D503220F24BF
:10155000834B05006DB22540083DAD080426754358
:10156000060076B23440083CA408042674431E5991
:10157000FF27BC461400044008277C436746A74069
:10158000BE438C01E4B2024008277A4394403443BE
:101590005C511BE0734A0323040064B2A4080425D1
:1015A0006C431459FF251E00064008277E43B540B2
:1015B000AC438D01EDB20340082673439D402543A3
:1015C00003005BB29B0804246343D550F0BDF8B51B
:1015D0000020654908800027002400252800634971
:1015E0000978C0B2884200D3A4E0614E3068290077
:1015F000C9B20C2251434018407A012800D07FE044
:1016000030682900C9B20C225143401831682A00C1
:10161000D2B20C235A438918897A491C81723068E6
:101620002900C9B20C2251434018807A462800D0C4
:101630007EE02800C0B200F0A3F931682A00D2B2DF
:101640000C235A438918097A0200D2B291423BD046
:101650002900CA4A1278C9B291420CD20100C9B21B
:10166000002931D131682A00D2B20C235A43895A59
:1016700039430F0028E031682A00D2B20C235A43C4
:10168000895A21430C000100C9B200290ED1CC496E
:101690000B880093326894462B00DBB20C22534334
:1016A0006246D25A009B93430B800DE0C4490B88DD
:1016B0000093326894462B00DBB20C2253436246FF
:1016C000D25A009B1A430A800021326894462B00AC
:1016D000DBB20C2253436246D2180B0053723268BD
:1016E00094462B00DBB20C2253436246D21891720F
:1016F00031682A00D2B20C235A438918087217E0C5
:1017000030682900C9B20C2251434018017A009177
:101710002800C0B200F034F90099C9B2814207D064
:1017200030682900C9B20C2251434018012141728E
:101730006D1C53E7380080B2002804D0380080B216
:10174000BB4909688847200080B2002804D02000E7
:1017500080B2B84909688847F1BD000000E100E0A7
:101760001CED00E000E400E0104801407F03002091
:1017700044030020FFB581B0002069464880002066
:101780000100C9B20E2917DA01216A4692880B00BE
:1017900083401A4204D079490A78521C0A7009E041
:1017A0006A46928981400A4204D069464988491CA8
:1017B0006A465180401CE3E79F48704909786A46B1
:1017C0005288891801709D4C00780C21484300F024
:1017D000B7FA20602068002802D10020FFF760FAE5
:1017E0000025280065490978C0B288424ED20027FA
:1017F0003E000120694689880200B240114201D1B1
:10180000761CF6E7B04021682B00DBB20C22534374
:10181000C85220682900C9B20C2251434018884997
:101820003200D2B2895C81703000C0B200F094FC0A
:1018300021682A00D2B20C235A43891848602068D4
:101840002900C9B20C225143401839004172206866
:101850002900C9B20C225143401887722800C0B237
:1018600000F08EF821682A00D2B20C235A4389185E
:1018700008726846808821682A00D2B20C235A4335
:10188000895A8843694688806D1CAAE7002738007A
:10189000C0B26946498880B2884250D200250126EC
:1018A000684680893100A940084201D16D1CF6E7E5
:1018B00032480078C019694608703000A840216895
:1018C0006A4612780C235A43885220686946097880
:1018D0000C22514340185A492A00D2B2895C8170C7
:1018E0002800C0B200F038FC21686A4612780C2348
:1018F0005A43891848602068694609780C22514388
:10190000401846722068694609780C2251434018F5
:10191000452181722068694609780C22514340189C
:10192000022101726846808921686A4612780C2378
:101930005A43895A8843694688817F1CA7E74148F2
:1019400001688022D2020A430260EF203E490880EB
:10195000C7203E49086001203D4908801620FFF756
:10196000E9FD02211620FFF7ECFD029830490860DE
:1019700004983049086005B0F0BD00007E030020E7
:1019800070B401002D4A10680B00DBB20C246343D5
:10199000C0184068038A012014680D00EDB20C26BF
:1019A00075436419A478A04018401268C9B20C238A
:1019B0005943511889780841C0B270BC7047000083
:1019C000720300202348018801220A4302807047E5
:1019D000214800787047184800781F490978401A54
:1019E000C0B2704715490968C0B20C225043085A6A
:1019F000704712490968184A1278C0B210180C22B0
:101A00005043085A704710B50100144800880B4A2B
:101A10001268114B1B780C00E4B21B190C246343B1
:101A2000D25A104201D1002000E0012010BD000078
:101A30003C030020400300207F03002044030020DB
:101A40006444000818100240284801402C48014016
:101A50000C480140004801407E0300207203002032
:101A600070B5264B1C688025AD0225431D60244CB3
:101A700020800C00A4B2234D2C600124224D2C8028
:101A80000025224E35800825214E35801500EDB207
:101A9000012D01D11F4D2C801C681F4D25401D605C
:101AA00070BD80B500F014F81848008880B2C007F7
:101AB000FAD500F019F801BD80B50020134908805F
:101AC0001449088001201549087000F00DF801BD87
:101AD0000A480168802292020A4302600C48018889
:101AE00001220A4302807047002008490880034809
:101AF0000168094A0A40026070470000181002405D
:101B0000284401402C440140144401401044014049
:101B1000004401400C440140FFFFFDFF7D03002015
:101B200000B51378037053784370937883701379FA
:101B300003710223C370052343710378032B01D182
:101B40000123C370D378002B09D13E4B0B603E4B71
:101B50004B603E4B8B603E4BCB603E4B0B6100BD00
:101B6000F3B5C3B01700002634002000C0B2B98816
:101B700080B288424AD238682100C9B2401869460A
:101B800008802000C0B234494018019001AD022005
:101B9000A8806846008880B2000AA871684600885C
:101BA000E87101A94398449AD2689047FFF779FFFA
:101BB0002000C0B281210901401801900520A880B1
:101BC000AE712000C0B20421484338188079E87112
:101BD0002000C0B2042148433818C0792872200080
:101BE000C0B2042148433818007A68722000C0B29D
:101BF000042148433818407AA87201A94398449AAE
:101C0000D2689047FFF74DFF641CAEE71348019080
:101C1000022401ADAC80AE7101A94398449A1269C7
:101C20009047FFF73EFFAC80E87920210143E9713E
:101C300001A94398449AD2689047FFF732FF45B014
:101C4000F0BD0000891F0008B91F000881230008AB
:101C5000C521000889220008150800001C080000A2
:101C6000F446002804D4494200F013F8404260478B
:101C70004042002905D45FD000F00BF840424942B1
:101C80006047494200F005F84942604703460B436C
:101C9000E6D40022030A8B420BD203098B4219D2ED
:101CA00043088B422ED2411A00D2014652411046BF
:101CB0007047FF2209023FD012068B4205D3121251
:101CC00009028B4201D31212090203098B4219D374
:101CD00000E0090AC3098B4201D3CB01C01A52416B
:101CE00083098B4201D38B01C01A524143098B42B5
:101CF00001D34B01C01A524103098B4201D30B019E
:101D0000C01A5241C3088B4201D3CB00C01A5241C2
:101D100083088B4201D38B00C01A524143088B4287
:101D200001D34B00C01A5241884200D3401A52419D
:101D3000CFD201461046704708B500F071FE08BDCD
:101D400010B5040000BF00BF200000F005F804003B
:101D500000BF00BF200010BD70B506000F36072180
:101D60008E43B04241D2082E04D2082602E0083049
:101D700000F048F8424C2568280005D1002107E012
:101D80000A68B24222D2081D01680029F8D12968E8
:101D9000201D02688A4224D01368B34216D2101D57
:101DA000F7E78B1903604D685D60921B03681A604A
:101DB0000E600068002804D04268002A01D0001D8F
:101DC00000E0002020600800083070BD00280CD022
:101DD00001680A681300083BB342E2D24A68026015
:101DE000E7E700F01FFE0028C1D1002070BD10B54C
:101DF000040006D000BF00BF200000F003F800BFC1
:101E000000BF10BD002800D1704770B408380268C8
:101E1000072A2DD951072BD119494B68002B01D026
:101E2000984202D24360486014E05D68002D21D0E2
:101E300085421FD22B00F8E7864203D1A81818600C
:101E4000180007E05C68002C02D0821894420FD37F
:101E5000446058604268002A0AD00368C41894425B
:101E600006D100240C601168591801605168416066
:101E700070BC70471D685E19B042DDD2F8E7000003
:101E800024030020FEB506000F0000252800C0B284
:101E90000E2833DA2800C0B2305C00282CD028008D
:101EA000C0B2315C2800C0B200F002F90400210089
:101EB000C9B22800C0B200F095F82000C0B20128D5
:101EC00004D019D3032811D008D315E00198008855
:101ED0000121A9400143019801800DE0029800888A
:101EE0000121A94001430298018005E038880121C1
:101EF000A94001433980FFE76D1CC7E7307C00280B
:101F00000AD09D480188C0220A4302809B4801688C
:101F1000882252050A430260B07C002806D0902037
:101F2000C00501688022D2050A430260F7BD38B5BA
:101F300005000C002800C0B20A2803DB2800C0B24C
:101F4000122820D12800C0B200F006F90F212A0083
:101F5000D2B20A2A04DA8A4A2B00DBB2D25C110020
:101F60002200D2B2002A05D1828A01238B409A43F3
:101F7000828208E02200D2B2012A04D1828A01239F
:101F80008B401343838231BD00B50100C9B20029E3
:101F900006D17C490A68A0231B0213430B600AE0A8
:101FA0000100C9B2012906D19021C9050A68A02300
:101FB0009B0313430B6000BD00B50100C9B20029AB
:101FC00005D170490A68704B13400B6009E00100AD
:101FD000C9B2012905D19021C9050A686B4B13408C
:101FE0000B6000BDF8B505000C002800C0B200F081
:101FF000B3F82100C9B2032904D058D3052921D050
:102000000CD354E0016803225D4B2E00F6B29B5DB9
:10201000022673439A400A43026048E0584A01236B
:1020200001682E00F6B2975D022677431E00BE407F
:102030000E430660818A2E00F6B2925D93400B43F8
:10204000838234E02900C9B2012907D02900C9B22E
:10205000022903D02900C9B203290BD181680122CA
:10206000474B2E00F6B29B5D022673439A400A430B
:1020700082601BE02900C9B2062903D02900C9B239
:10208000072913D13E49828801232E00F6B28E5DC6
:10209000B34013438380426A04232E00F6B2895D65
:1020A0000839042671438B4013434362FFE7F1BDB7
:1020B00000B502001000C0B2002807D01000C0B266
:1020C000042803D01000C0B2052803D13048C9B29B
:1020D000405C40E01000C0B2012807D01000C0B240
:1020E000022803D01000C0B2032803D12948C9B286
:1020F000405C30E01000C0B2062803D01000C0B22F
:10210000072803D12448C9B2405C24E01000C0B2C3
:10211000082803D01000C0B2092803D11F48C9B253
:10212000405C18E00800C0B2002813D01000C0B214
:102130000A2803D01000C0B20B2801D103200AE006
:102140001000C0B20C2803D01000C0B20D2801D17D
:10215000012000E0002000BD00B501009020C00576
:102160000A00D2B2042A03D00A00D2B2052A01D151
:10217000044A100000BD0000040400482004004888
:102180006444000800040048FF0FFFFFFFFFC3FF87
:10219000B8440008C0440008C8440008E0440008EF
:1021A0009F48016810220A4302609E48016880220D
:1021B00092030A4302609C489C49086001209C49A4
:1021C00008607047F8B506000C00B078FF2803D00F
:1021D0000021B078FFF7ABFE96480168964A0A40A6
:1021E00002600168A288F378D218120473785B0049
:1021F00013430B4303602168F278521E08235A43AD
:10220000D140C9B28D4A11600168802292010A430F
:1022100002608B4901220B681340002BF9D0130098
:102220001D00F778EDB2BD4211D22568AC46F578B5
:102230006D1EEF1A08256F436546FD40EDB27F4FD6
:102240003D600D681540002DFBD05B1CE8E7A51D27
:10225000A388002B0BD02B78784F3B600B68134082
:10226000002BFBD06D1CA3885B1EA380F0E70168E8
:102270008022D2010A430260B078FF2803D00121F6
:10228000B078FFF754FEF1BDF1B50C0000988078EE
:10229000FF2804D0002100988078FFF748FE6548A9
:1022A0000168654A0A4002600168009AD278120407
:1022B000009B5B785B0013430B4303602168009A2B
:1022C000D278521E08235A43D140C9B25B4A1160EA
:1022D00080229201016811430160594901230D6870
:1022E0001D40002DF9D01D002E00009FFF78F6B292
:1022F000BE4212D22668B446009EF678761E771B40
:10230000082677436646FE40F6B24C4F3E600E68A4
:102310001E40002EFBD06D1CE6E703688025ED0013
:102320001D4305600368474D1D4005600368A5888F
:102330002D041D43056003681A430260A51D0A6849
:102340005207FCD5404A12682A706D1CA288521EA2
:10235000A280A288002AF2D101688022D2010A4319
:1023600002603A48016820220A430260009880789F
:10237000FF2804D0012100988078FFF7D8FDF1BD37
:10238000F8B50700B878FF2803D00021B878FFF728
:10239000CEFD0124200069460870002209211D207D
:1023A000FFF75EFB234D2868234901402960286818
:1023B00079784900014329608026B60128683043B6
:1023C0002860FFF76EFB286806432E60FFF769FB65
:1023D00028688021C90101432960FFF762FB184882
:1023E00000681B490140002902D00020694608709E
:1023F0000F4D00202860286820400028FBD1FFF7FF
:1024000050FB2C60286820400028FBD0B878FF28BB
:1024100003D00121B878FFF78AFD68460078F2BD45
:10242000301002401C100240090333501054004089
:10243000005400400454004000F800FF28540040BD
:1024400018540040FFFF00FF245400401C5400407B
:102450001080000080B5FFF7CAFC01BD1206130A08
:102460001A43130C1A4300BF094205D0830705D055
:102470000270401C491EF9D170470000130010394A
:1024800006D330B41400150010393CC0FCD230BC67
:10249000490700D30CC000D504C0890002D30280D4
:1024A000801C002900D502707047F1B40168421801
:1024B00041684808131800988068C9071ED5494626
:1024C00040181BE01778521C0770401C761EF9D18B
:1024D000002C13D01678521C89080D40032D01D111
:1024E0001578521C290271184D424119A41C05D0BF
:1024F0000D78491C0570401C641EF9D19A420FD01A
:102500001178521C032503260E4002D11678F61CC2
:10251000521C0C090F2CD9D114780F34521CD5E75A
:1025200000980C30F2BC7047F8B504000F0015009D
:102530001E00200000F0D9FA200000F016F8B820A4
:102540002550BC202650C020275000F040FB200022
:1025500000F090FBBC20205800688047200000F06D
:10256000F1FA200000F0FBFDF1BD010000207047F2
:102570001CB504006946200001F0B2F868460078F6
:10258000C006C00EC0B2002803D002280BD005D36D
:102590000EE06946200000F0F7FD10E069462000DB
:1025A00000F030FE0BE06946200000F054FE06E02B
:1025B0006846017880200140200000F038FD0020AE
:1025C00016BD70B504000E003000C0B200282BD13B
:1025D0002000683005006078032834D1E868E96994
:1025E000884210D2E869E968401AE861E869E96858
:1025F000884201D2EA6900E0EA6892B229692000C3
:1026000001F002F91FE0B82020580069002807D027
:10261000A078032804D12000B821615809698847AF
:10262000200001F000F90EE0B82020588069002851
:1026300009D0A078032806D13100C9B22000B82201
:10264000A25892699047002070BDF8B504000F00B1
:102650003800C0B200284AD1200018300600607847
:10266000022835D1F068F16988420AD2F069F16830
:10267000401AF061F26992B23169200001F09CF8D1
:1026800044E0306AF168FFF704FB00290FD1306A9B
:10269000F16888420BD3306A716A884207D20022FF
:1026A0000021200001F088F8002070622EE0B820A0
:1026B0002058C068002807D0A078032804D1200043
:1026C000B8216158C9688847200001F0BAF81DE0B8
:1026D000607804281AD10E4D2868002816D0296881
:1026E000C9B2200000F01AFD002028600EE0B820DA
:1026F00020584069002809D0A078032806D1390065
:10270000C9B22000B822A258526990470020F2BDF9
:102710006803002010B5040040230022002120009F
:1027200000F0CAFA802300228021200000F0C4FAC1
:10273000002340220021200000F0E9FA002340227B
:102740008021200000F0E3FA0120A070E068C0B210
:10275000BC21615849688847002010BD10B50400AD
:10276000BC20205800698047E078A070002010BD90
:1027700010B50400A078E0700420A070BC202058A0
:10278000C0688047002010BD10B50400B820205854
:10279000C069002804D02000B8216158C969884761
:1027A000002010BD38B505000C002100C9B228007A
:1027B000B822AA5812689047BC20285880688047E1
:1027C000002032BD38B505000C002100C9B2280038
:1027D000B822AA5852689047002032BD38B504008C
:1027E0000D00A8235B0000228121200000F064FA84
:1027F000B0235B0000220121200000F05DFA0323DA
:1028000040228121200000F082FA0323402201218E
:10281000200000F07CFA4023624A0121200000F0F1
:1028200077FB002032BD38B504000D008121200067
:1028300000F016FB0121200000F012FB002032BD49
:10284000F8B506000D0000273800694608703C0006
:10285000287860210140C9B200293CD0202970D1DC
:102860006878022819D003280AD009281BD00A2822
:102870000CD00B2828D16888C0B24B49086029E0E9
:1028800001224949300000F080FF23E0688880B2CF
:10289000000AC0B2454908601CE0012243493000EB
:1028A00000F073FF16E00120414908706888414933
:1028B0000870E888694608706846027892B239491B
:1028C000300000F088FF05E02900300000F020FF14
:1028D000022037E035E06878062804D00A2826D0A0
:1028E0000B282AD02DE0688880B2000A80B2222806
:1028F00008D1E888092801DB082400E0EC882E488C
:1029000007000DE0688880B2000A80B2212807D154
:102910002A480700E8880A2801DB092400E0EC883F
:10292000220092B23900300000F02FFF09E00122AE
:102930002349300000F029FF03E06888C0B2204935
:1029400008600020F2BD70B504000E001500A078EC
:10295000032806D12B009BB232008121200000F019
:102960000FFB002070BD0200292008801548704729
:1029700000B502000800C0B2012802D10120124BAC
:102980001870002000BD70B504000E00054D280031
:10299000FEF79AF940232A000121200000F0B8FA3E
:1029A000002070BD640200205C0300206003002052
:1029B0008203002081030020D04400085E43000809
:1029C000580300204C430008900000200100002024
:1029D000704730B504000D00200080B20421FFF7DD
:1029E00055F9288168892988401A29894018688101
:1029F00000200100C9B204290CDA0100C9B2022288
:102A00005143691849880200D2B202235A43A9529D
:102A1000401CEEE730BD7047704770477047704705
:102A20007047FEE707490868002801D0002070477A
:102A3000054807229043086004499143091A016040
:102A4000704700BF6C0300208F0700208813002010
:102A50000121C206D20E9140334A11607047F0B591
:102A6000020052B2002A23D503220F242F4B050067
:102A70006DB22540083DAD0804267543060076B2C8
:102A80003440083CA408042674431E59FF27BC4662
:102A90001400044008277C436746A740BE438C01CE
:102AA000E4B2024008277A43944034435C511BE06F
:102AB0001F4A0323040064B2A40804256C4314597C
:102AC000FF251E00064008277E43B540AC438D011C
:102AD000EDB20340082673439D40254303005BB2DB
:102AE0009B0804246343D550F0BD12490A68802333
:102AF0001B0413430B600A6880231B0513430B6000
:102B00000D490A680D4B13400B600A6880239B0532
:102B100013430B600A490A68402313430B600A6899
:102B2000202313430B60704700E100E01CED00E040
:102B300000E400E01C100240046C0040FFFFFFCFE7
:102B4000006C004010B5040001211F20FFF787FF33
:102B50001F20FFF77DFF10BD0200122008802748CC
:102B600070470200042008802548704770B50600B1
:102B70000D00244C2A002100234800F0D1FD200044
:102B800070BD70B506000D001E4C2A0021001F48C4
:102B900000F0C6FD200070BD02001A2008801C480D
:102BA000704770B506000D00164C2A002100194828
:102BB00000F0B6FD200070BD70B506000D00114C90
:102BC0002A002100144800F0ABFD200070BDF8B5CC
:102BD0001248006812490E6812490D684719002F03
:102BE0000BD00B4C0822A11C380000F01DF8042269
:102BF00021001231300000F017F8F1BD2C4400081C
:102C0000E4440008A4020020D844000894440008CA
:102C100060000020A044000874440008ACF7FF1FC7
:102C2000B0F7FF1FB4F7FF1FF0B500231D001C0015
:102C300025001600EDB2F6B2B5421AD2050F0A2DE4
:102C400007D2050F30352600F6B202277E438D5598
:102C500006E0050F37352600F6B202277E438D5574
:102C600000012500EDB2022675434D196B70641CFE
:102C7000DEE7F0BD10B5040001200100A1700021C5
:102C80000A002271A160E060012000F0E9FD00204F
:102C900000F0E6FD002000F0E8FD002000F0EAFD75
:102CA0000448BF2109020160006880B200F0D8FD2D
:102CB00010BD00005403002030B50400080080B2AD
:102CC000000609D5080080B24006400E282568435A
:102CD00020180500183508E0080080B24006400EB4
:102CE00028256843201805006835100080B20028A8
:102CF00004D10020A8721800A88006E00120A87264
:102D00001800E8801800000C2881002030BDF8B5BC
:102D100006000D001700280080B200060BD5280021
:102D200080B24006400E2821484330180400183471
:102D3000012060700AE0280080B24006400E282181
:102D4000484330180400683400206070380080B2B6
:102D5000E06068460078E07028004006400E207071
:102D60002078002803D100206062E061206200200A
:102D700020616061A061A070E078002805D0022881
:102D800009D013D303280BD015E0802189002078C7
:102D900000F07CFD0FE00021207800F077FD0AE0D4
:102DA000C021C900207800F071FD04E08021C90035
:102DB000207800F06BFDA07A002820D160780028F0
:102DC0000BD0A188207800F02DFE207800F010FEB6
:102DD0002021207800F06CFD40E0A188207800F0F0
:102DE00033FEE16889B2207800F050FE207800F0D0
:102DF000E5FDC0218901207800F078FD2EE02078E3
:102E000000F094FD2289E188207800F07FFE607850
:102E1000002812D1207800F0D1FD207800F0E8FDE4
:102E2000207800F0B9FDC0218901207800F05EFD16
:102E30000021207800F03CFD10E0207800F0BEFD7D
:102E4000207800F0D5FD207800F092FD0021207858
:102E500000F02EFD0021207800F048FD0020F2BD9A
:102E600070B506000C002000C0B2000609D5200095
:102E7000C0B24006400E28214843301805001835DE
:102E800008E02000C0B24006400E28214843301818
:102E900005006835A87A002812D16878002807D084
:102EA000287800F0A5FD0021287800F001FD2DE034
:102EB000287800F083FD0021287800F017FD25E038
:102EC0006878002811D1287800F078FD287800F083
:102ED0008FFD287800F060FD0021287800F006FDC5
:102EE0000021287800F0E4FC10E0287800F066FD6E
:102EF000287800F07DFD287800F03AFD0021287840
:102F000000F0D6FC0021287800F0F0FC002070BD15
:102F1000FEB507000E001500002000903100C9B278
:102F20004906490E2822514379180C00683425615E
:102F3000694609896161A061E1686269914206D2CE
:102F4000E068009060690099401A606102E0616980
:102F500000916061A07A002805D1009989B220789B
:102F600000F094FD05E0009A92B26178207800F0BC
:102F7000F3FDC0218901207800F0B8FC0020FEBDDF
:102F8000FEB507000D001600002001907F212A00E9
:102F9000D2B20A4028235A43BA18140018342940E0
:102FA0002170266102996161A061E16862699142C4
:102FB00006D2E16801916169019A891A616102E0B2
:102FC000616901916061A17A00290BD1019A92B2E5
:102FD000A188206900F07BFE019989B2207800F079
:102FE00045FD1EE069460880019A92B2617820781A
:102FF00000F0B2FD207800F042FC400603D52089A5
:103000006946088002E0E08869460880019A92B229
:1030100068460188206900F05AFE6178207800F047
:103020002DFE3021207800F043FC0020FEBD70B55D
:1030300006000C002000C0B2000609D52000C0B276
:103040004006400E2821484330180500183506E098
:103050002000C0B228214843301805006835287880
:10306000002817D14248297804225143425892B28D
:1030700040491140802252014A401021514089B2FA
:103080003D4A0A4329780423594342500120A8703D
:10309000002011E06878002806D00120A8701021D7
:1030A000287800F005FC06E00120A8708021490185
:1030B000287800F01BFC002070BD70B506000C00E5
:1030C0002000C0B2000609D52000C0B24006400E64
:1030D0002821484330180500183506E02000C0B20A
:1030E000282148433018050068356878002809D041
:1030F000287800F07DFC3021287800F0D9FB0020F2
:10310000A87009E0287800F059FCC02189012878CE
:1031100000F0ECFB0020A870002070BD70B500220C
:1031200013000171022A13D2114B1400E4B20425DA
:103130006C431C59114D25401400E4B22C430E4D34
:1031400025431400E4B2042674431D51521CE9E7E0
:103150000B00DBB280241C43094B1C6070BD094985
:103160000A6880231B0213430B60012181707047A2
:10317000005C0040BFBF0000808000008F8F000017
:103180004C5C0040585C004070B505000C00002607
:103190006078002820D0012828D0032821D00528D5
:1031A0000BD0062804D0082811D009280AD022E024
:1031B0002100280000F00AF921E02100280000F099
:1031C0009FF91CE02100280000F0C6F917E021005B
:1031D000280000F017FA12E02100280000F036FA6B
:1031E0000DE02100280000F04EFA08E02100280040
:1031F00000F05BFA03E02100280000F089FA3000BB
:10320000C0B270BD70B505000C000026A878032878
:103210001AD1A088C0B2022811DA21002800B822F1
:10322000AA58926890470600E08800280BD1300029
:10323000C0B2002807D1280000F0F5FA03E0210011
:10324000280000F065FA03E02100280000F060FA91
:103250003000C0B270BDF8B504000E000020009030
:103260000700B588717800296AD0012935D0032973
:1032700000D0A8E0A078022802D003280ED027E0D2
:103280002800C0B2002808D02800C0B2802804D08E
:103290002900C9B22000FFF7CAFE1DE0708800288F
:1032A0000CD12800C0B2002808D02800C0B2802865
:1032B00004D02900C9B22000FFF7B9FE3100200078
:1032C000B822A25892689047200000F0ACFA03E0C0
:1032D0003100200000F01CFA75E0A078022802D02E
:1032E00003280ED027E02800C0B2002808D028000C
:1032F000C0B2802804D02900C9B22000FFF797FE91
:103300001DE0708800280CD12800C0B2002808D029
:103310002800C0B2802804D02900C9B22000FFF7DD
:10332000CCFE31002000B822A258926890472000BD
:1033300000F079FA03E03100200000F0E9F942E002
:10334000A178022902D003290ED037E02800C0B2AC
:10335000002808D02800C0B2802804D02900C9B2B3
:103360002000FFF764FE2DE080212A00D2B20A403F
:10337000002A0ED02900C9B24906490E282251431D
:103380006118897E002902D00120009010E0009091
:103390000EE00D420CD12900C9B228225143611818
:1033A0006A22895C002902D00120009000E0009090
:1033B00002226946200000F0E8F903E03100200015
:1033C00000F0A6F9FFE73800C0B2F2BD7CB50500F9
:1033D0000E00708880B2000AC0B2012808D002280E
:1033E00015D003281ED0062865D0072868D06CE0C9
:1033F0006946E868C0B2C022AA5812689047040023
:10340000F088402802D108206946088062E06946B9
:10341000E868C0B2B822AA58126A90470400C420D3
:103420002C5057E07088C0B2002808D0022818D06D
:103430000ED3042827D01DD305282DD035E06946AA
:10344000E868C0B2C022AA5852689047040031E030
:103450006946E868C0B2C022AA5892689047040042
:1034600028E06946E868C0B2C022AA58D2689047EE
:1034700004001FE06946E868C0B2C022AA58126979
:103480009047040016E06946E868C0B2C022AA5816
:103490005269904704000DE06946E868C0B2C02256
:1034A000AA5892699047040004E03100280000F017
:1034B0002FF924E00EE03100280000F029F91EE089
:1034C0003100280000F024F919E03100280000F054
:1034D0001FF914E068460088002810D0F088002802
:1034E0000DD068460088F188884202D3F08869468A
:1034F0000880684602882100280000F046F973BD64
:1035000070B505000C00A088002820D1E0880028B4
:103510001DD1A0784006400E0600A878032804D1EB
:103520002100280000F0F4F815E02E713000C0B240
:1035300032490860280000F076F93000C0B2002857
:1035400002D00220A87006E00120A87003E021004C
:10355000280000F0DDF870BD70B504000E00284DA5
:10356000708828702878022804DB3100200000F0E1
:10357000CFF841E0A078022802D0032813D037E02A
:10358000287800280BD0287820700320A070297894
:103590002000FFF707F9200000F045F902E02000C5
:1035A00000F041F928E0287800280BD10220A07013
:1035B0002878207029782000FFF704F9200000F017
:1035C00032F914E02878217888420DD02178200043
:1035D000FFF7F8F82878207029782000FFF7E2F844
:1035E000200000F020F902E0200000F01CF903E0C8
:1035F0003100200000F08CF870BD0000680300204E
:103600008303002038B504000D0000200090E888F6
:10361000012804D02900200000F07AF815E0A078F5
:10362000022802D0032806D00BE0012269462000C0
:1036300000F0ABF809E001222100200000F0A5F81D
:1036400003E02900200000F063F831BD38B5040024
:103650000D0000200090A078801E01280ED80120C7
:103660000090A068002803D0009802210143009137
:1036700002226946200000F088F803E029002000BB
:1036800000F046F831BD38B505000C00608801280F
:103690000AD10120A86021002800B822AA58926807
:1036A0009047280000F0BFF831BD38B505000C0088
:1036B000A878801E01280ED8608801280AD1002031
:1036C000A86021002800B822AA58926890472800D4
:1036D00000F0A9F803E02100280000F019F831BD3E
:1036E000027C0A70427C4A70827CC37C1B02D21826
:1036F0004A80027D437D1B02D2188A80827DC37D71
:103700001B02D218CA80CA88C26301224270704765
:1037100038B504000D0000212000FFF788FC31BD02
:10372000F4B504000F0000252E00002C21D020004D
:1037300000F020F802214843801C0099088000987E
:1037400000883100C9B27854761C03203100C9B218
:103750007854761C207800280BD020783100C9B22C
:103760007854641C761C28003100C9B27854761C49
:10377000F0E7F1BD00B5010000200A78002A02D070
:10378000401C491CF9E7C0B200BDF8B504000F00A9
:1037900015000026280080B2A063280080B2606374
:1037A000022060702B009BB23A0000212000FFF73E
:1037B000E7FB3000C0B2F2BDF8B507000E001500FF
:1037C00000242B009BB2320000213800FFF7D8FB09
:1037D0002000C0B2F2BDF8B504000F0015000026AD
:1037E000280080B288216050280080B28421605077
:1037F000032060702B009BB23A0000212000FFF7ED
:1038000087FB3000C0B2F2BDF8B507000E0015000E
:1038100000242B009BB2320000213800FFF778FB18
:103820002000C0B2F2BD38B5050000240420687045
:103830000023002200212800FFF7A2FB2000C0B2D5
:1038400032BD38B505000024052068700023002231
:1038500000212800FFF75CFB2000C0B232BDFEE76C
:10386000010089B23C4A11607047010089B23C4AAC
:1038700011607047374901403B4A11607047374932
:10388000C0B204225043085880B2704730B4334A63
:103890000300DBB204246343D3583E4C1C400C436A
:1038A000A4B20300DBB204256B43D45030BC704794
:1038B00030B52A4A0300DBB204246343D458294BB1
:1038C00023401024214202D01D0023006B402024FD
:1038D000214202D01D0023006B40444C1C43A4B283
:1038E0000300DBB204256B43D45030BD30B51B4A16
:1038F0000300DBB204246343D4581C4B23408024D0
:103900006401214202D01D0023006B408024A401E9
:10391000214202D01D0023006B40344C1C43A4B252
:103920000300DBB204256B43D45030BD10B40B4907
:103930000200D2B204235A438A58394B1340524AE8
:103940001A4392B20300DBB204246343CA5010BC92
:1039500070470000F8FF0000405C0040005C004041
:10396000445C0040BF8F0000505C00408FBF0000EF
:1039700010B465490200D2B204235A438A58284B36
:103980001340724A1A430300DBB204246343CA5053
:1039900010BC70478F89000010B45B490200D2B29E
:1039A00004235A438A581E4B1340694A1A430300A2
:1039B000DBB204246343CA5010BC704710B55249AF
:1039C0000200D2B204235A438A5852040DD5020091
:1039D000D2B204235A438A58114B13405B4A1A430C
:1039E0000300DBB204246343CA5010BD8080000092
:1039F00010B545490200D2B204235A438A585206F0
:103A00000DD50200D2B204235A438A58044B134006
:103A10004F4A1A430300DBB204246343CA5010BD6B
:103A20008F8F000010B44B4A126892B20300DBB2D1
:103A300008246343D2187F4BD2180B009BB25B085B
:103A40005B00138010BC704710B4424A126892B2F7
:103A50000300DBB208246343D218774BD2180B0063
:103A60009BB25B085B00138010BC704710B4394AEE
:103A7000126892B20300DBB208246343D2186F4B82
:103A8000D218118010BC70478081000010B5314AF7
:103A9000126892B20300DBB208246343D2186F4B62
:103AA000D2180B009BB23F2B0BDB0B009BB25B09C8
:103AB000CC0600D15B1E9B02802424021C43148090
:103AC00007E00B009BB25B08CC0700D55B1C9B0298
:103AD000138010BD1F49096889B2C0B20822504343
:103AE00008185649401800888005800D704719490C
:103AF000096889B2C0B208225043081857494018D3
:103B000000888005800D7047005C004070B4114B48
:103B10001C68A4B20500EDB2082675436419454D32
:103B200064190D00ADB26D086D0025801B689BB255
:103B30000400E4B208256C431B193F4C1B19140008
:103B4000A4B2640864001C8070BC704780C0000090
:103B5000C0800000505C004030B50B00DBB2002B91
:103B600022D1674B1B689BB20400E4B208256C436A
:103B70001B19324C1B191400A4B23F2C0BDB140090
:103B8000A4B26409D50600D1641EA40280252D02CA
:103B900025431D8017E01400A4B26408D50700D5A2
:103BA000641CA4021C800EE00B00DBB2012B0AD1C6
:103BB000534B1B689BB20400E4B208256C431B19ED
:103BC0001E4C1B191A800B00DBB2002B22D14C4B70
:103BD0001B689BB20400E4B208256C431B19544CCB
:103BE0001B191400A4B23F2C0BDB1400A4B264090F
:103BF000D50600D1641EA40280252D0225431D8018
:103C000017E01400A4B26408D50700D5641CA40210
:103C10001C800EE00B00DBB2012B0AD1384B1B6875
:103C20009BB20400E4B208256C431B19404C1B19DD
:103C30001A8030BD00600040046000400260004017
:103C40002F49096889B2C0B20822504308182D498B
:103C5000401800888005800D704700000660004015
:103C60002749096889B2C0B2082250430818304970
:103C7000401800888005800D7047000030B50A00AC
:103C8000D2B2002A0FD12B4A0300DBB204246343D3
:103C9000D358294C1C40294B23430400E4B204258B
:103CA0006C43135112E00A00D2B2012A0ED1214A0C
:103CB0000300DBB204246343D3581F4C1C40204B49
:103CC00023430400E4B204256C43135130BDF2B524
:103CD000110089B2491C49106D462D88194EAD1945
:103CE0000E00002E0BD007783B00401C07783F02E7
:103CF0001F433C002C80AD1C401C761EF1E7F1BD3B
:103D0000505C00400260004070B513009BB25B1C29
:103D10005B100C00A4B20B4D65191C00002C06D0E2
:103D20002E880680AD1C401C401C641EF6E770BD4A
:103D300006600040005C00408F8F0000C0800000E3
:103D400080C0000000600040FEB5002001006A460F
:103D5000518069468880BF4800686946C8808025D0
:103D60002D02284200D174E16846C0880007000F88
:103D70006946087068460078002800D086E06846EA
:103D8000C088C00618D4B448016889B2B34A0A4052
:103D90000260B34D2800183004002078FFF79AFE27
:103DA000A0612069A1694018206100212800AD4A66
:103DB000126852689047CEE7A94F38006830040077
:103DC000A54E30686946888068468088000514D50D
:103DD0002078FFF78CFEA061A26992B2A18838001A
:103DE0001030FFF791FF30689F4901403160380083
:103DF0009C49096889688847ADE7684680882842F9
:103E0000A9D030689849014031602078FFF76FFEF3
:103E1000A061A069002809D0A26992B2A188206996
:103E2000FFF772FF2069A169401820610021380066
:103E30008C4A1268126890478C48006880B28C499E
:103E40004018E1683F290BD3E1684909227BD2067B
:103E5000D20E002A00D1491E89020D43058007E0D9
:103E6000E1684908227BD20700D5491C89020180FC
:103E7000316880480840802149014140802080010C
:103E80004840B949014389B2316064E7724E6846DF
:103E90000078042148433058694688806846808805
:103EA00028426ED0684600780421484330586E4955
:103EB000014068460078042250433150684D6846FE
:103EC000007828214843281868300400A07A002888
:103ED0000FD12078FFF70BFE69464880684640887E
:103EE00000282ED068464288A1882069FFF70CFF81
:103EF00027E02078FFF7C3FC40040FD52078FFF7B8
:103F00009FFE6946488068464088002815D068466C
:103F10004288E1882069FFF7F7FE0EE02078FFF77E
:103F20009FFE6946488068464088002805D068465C
:103F3000428821892069FFF7E7FE00212078FFF7FA
:103F40009DFEA069694649884018A06120696946BC
:103F50004988401820616069002804D0684640887C
:103F6000E168884206D2217828003E4A1268126829
:103F7000904706E063699BB2226921782800FEF72A
:103F8000C7FF68468088000600D4E4E6344D6846E2
:103F90000078282148432818183004006846007823
:103FA00004214843305880B22C49014068460078CB
:103FB000042250433150A07A00280DD12078FFF719
:103FC00089FDA061A06900282AD0A26992B2A188C7
:103FD0002069FFF77CFE23E02078FFF750FC4006C5
:103FE0000DD52078FFF72CFEA061A069002813D022
:103FF000A26992B2E1882069FFF769FE0CE020789F
:10400000FFF72EFEA061A069002805D0A26992B238
:1040100021892069FFF75BFE01212078FFF72EFE42
:104020002078FFF757FDA0612069A1694018206141
:104030006069002806D1217828000A4A126852686F
:10404000904788E66369226921782800FEF798FF87
:1040500081E6F7BD445C0040005C00400F8F00002B
:104060009C0100201C0000208F0F0000505C0040CD
:10407000066000408FBF00007CB5002069460880C4
:104080003A4C206869460880394D6846008880218E
:1040900009020140286889B2014201D0FFF754FEAD
:1040A000684600888021C9000140286889B2014221
:1040B0000BD030482060304E300030490968096923
:1040C000884700213000FFF729F8684600888021E2
:1040D00089010140286889B2014201D02848206046
:1040E00068460088802149010140286889B2014260
:1040F00009D02448206020482049096889698847F8
:10410000002000F060F86846008880210901014025
:10411000286889B2014208D01B4820601648174918
:1041200009684969884700F035F8684600888021A9
:1041300089000140286889B2014206D013482060F6
:104140000D480E490968C96888476846008880217B
:1041500049000140286889B2014204D00C4820601F
:10416000072000F030F873BD80800000445C004000
:1041700054030020FFFB00009C0100201C000020D5
:10418000FFDF0000FFEF0000FFF70000FFFD000071
:10419000FFFE0000394B186808210143080080B277
:1041A0001860186804220243100080B2186070473B
:1041B000324A106832490140080080B21060BF20C6
:1041C00000021060704770B504002000C0B20728DC
:1041D00001D02C4804702B4E3078002808D00228DB
:1041E0001AD011D3042825D01BD305282FD042E0A4
:1041F00025480068002804D1FFF7DAFF0620307058
:1042000001E00520307038E0FFF7D2FF0420307065
:1042100001201D49086030E00220707003203070DA
:104220002BE07078401E70707078002801D1042057
:10423000307022E01149086810220243150028005E
:1042400080B20860052030700A20707015E0707828
:10425000401E7070707800280CD1084908680B4A1D
:1042600002401500280080B208600620307000204F
:104270000549086001E00620307070BD405C0040D8
:10428000FBFF00007A03002064030020EFFF000022
:104290001448016801220A43026013490A68134B5B
:1042A00013400B600268124B134003600268114B0D
:1042B000134003600868104A02400A600F48016812
:1042C0000F22914301600E4801680E4A0A400260C5
:1042D0000D48016801229143016000200B490860EC
:1042E0007047000000100240041002400CB8FF08A4
:1042F000FFFFF6FEFFFFFBFFFFFFC0FF2C10024099
:10430000301002402CFEFFFF341002400810024023
:1043100070B40123002413E00168001D194202D08B
:104320004D466D1E49190C60091D121F042AFAD250
:104330000D00960701D50C80AD1C1A4000D02C70E2
:104340000268001D002AE7D170BC704709022900ED
:10435000010100C03209040000020300000009212D
:104360001101000122080007058103400001070533
:10437000010340000100000010B5074979441831DD
:10438000064C7C44163404E0081D0A6889188847E6
:104390000100A142F8D110BD080000002400000077
:1043A00071FFFFFFF40200009400002000000000F5
:1043B000FBE0FFFF5A010000D600000000000020D3
:1043C00010000000200000004000000080000000FD
:1043D00000010000000200000100000002000000D7
:1043E00000F00DF8002801D0FFF7C6FF00BF00BFA6
:1043F000002000BF00BFFBF763FE00F002F80120C1
:10440000704780B500F002F801BDFEE70746384668
:1044100000F002F8FBE7FEE780B500BF00BF024AEC
:1044200011001820ABBEFBE72600020012010002BB
:1044300000000040830410A20002010203010000FA
:10444000704700B5FEE770477047704780B5FFF7CB
:1044500013FE01BD0100020004000800100020004E
:1044600000040008040506070001090A0D0E0001FA
:104470000203000048494420496E74657266616316
:10448000650000000148804701480047914200084C
:10449000AD4400084368697026446970000000005C
:1044A00048494420436F6E666967000000BF00BF43
:1044B00000BF00BFFFF794FF0001020304000000EB
:1044C00000010203050000000001020504000000D5
:1044D00006FF000901A101C0436172644C616200E2
:1044E0000001020404030904FEE7FEE7FEE7FEE71D
:1044F000FEE7FEE7FEE7FEE7FEE7FEE7FEE7FEE794
:10450000FEE7FEE7FEE7FEE7FEE7FEE7FEE7100751
:10451000C32500084B2600087108100389270008EE
:104520001504127104125D04100300000020DD0860
:10453000300427280008412810100100CD2920113F
:1045400004438729101267081003592B00086304DD
:10455000128304126D0412990412A30412B904F018
:1045600001081A0300011003172A00081904121B7E
:0945700004121D04121F040201D3
:04000005080044ADFE
:00000001FF
